{
  "_format": "hh-sol-artifact-1",
  "contractName": "VestedPairFactory",
  "sourceName": "contracts/VestedPairFactory.sol",
  "abi": [
    {
      "anonymous": false,
      "inputs": [
        {
          "indexed": false,
          "internalType": "address[4]",
          "name": "deployedContracts",
          "type": "address[4]"
        }
      ],
      "name": "VestedPairDeployed",
      "type": "event"
    },
    {
      "inputs": [
        {
          "internalType": "uint256",
          "name": "equityTokenInitialSupply",
          "type": "uint256"
        },
        {
          "internalType": "string",
          "name": "equityTokenName",
          "type": "string"
        },
        {
          "internalType": "string",
          "name": "equityTokenSymbol",
          "type": "string"
        },
        {
          "internalType": "address[]",
          "name": "recipients",
          "type": "address[]"
        },
        {
          "internalType": "uint256[]",
          "name": "amounts",
          "type": "uint256[]"
        },
        {
          "internalType": "uint256",
          "name": "cliffTime",
          "type": "uint256"
        },
        {
          "internalType": "uint256",
          "name": "vestingTime",
          "type": "uint256"
        }
      ],
      "name": "createOrderBook",
      "outputs": [],
      "stateMutability": "nonpayable",
      "type": "function"
    },
    {
      "inputs": [],
      "name": "quoteToken",
      "outputs": [
        {
          "internalType": "contract IERC20",
          "name": "",
          "type": "address"
        }
      ],
      "stateMutability": "view",
      "type": "function"
    }
  ],
  "bytecode": "0x608060405234801561001057600080fd5b50615eb4806100206000396000f3fe60806040523480156200001157600080fd5b50600436106200003a5760003560e01c8063217a4b70146200003f578063a0f48edf1462000061575b600080fd5b6200004962000081565b604051620000589190620005b8565b60405180910390f35b6200007f60048036038101906200007991906200097c565b62000087565b005b61101081565b8251845114620000ce576040517f08c379a0000000000000000000000000000000000000000000000000000000008152600401620000c59062000b32565b60405180910390fd5b6000805b84518110156200011f57848181518110620000f257620000f162000b54565b5b60200260200101518262000107919062000bb2565b91508080620001169062000bed565b915050620000d2565b508781111562000166576040517f08c379a00000000000000000000000000000000000000000000000000000000081526004016200015d9062000cb0565b60405180910390fd5b6000670de0b6b3a7640000896200017e919062000cd2565b90506000818989604051620001939062000503565b620001a19392919062000da6565b604051809103906000f080158015620001be573d6000803e3d6000fd5b509050600081611010604051620001d59062000511565b620001e292919062000e16565b604051809103906000f080158015620001ff573d6000803e3d6000fd5b509050600088888888863360405162000218906200051f565b620002299695949392919062000ff0565b604051809103906000f08015801562000246573d6000803e3d6000fd5b5090508273ffffffffffffffffffffffffffffffffffffffff1663a9059cbb82670de0b6b3a7640000886200027c919062000cd2565b6040518363ffffffff1660e01b81526004016200029b9291906200106b565b6020604051808303816000875af1158015620002bb573d6000803e3d6000fd5b505050506040513d601f19601f82011682018060405250810190620002e19190620010d5565b508273ffffffffffffffffffffffffffffffffffffffff1663a9059cbb338573ffffffffffffffffffffffffffffffffffffffff166370a08231306040518263ffffffff1660e01b81526004016200033a919062001107565b602060405180830381865afa15801562000358573d6000803e3d6000fd5b505050506040513d601f19601f820116820180604052508101906200037e91906200113b565b6040518363ffffffff1660e01b81526004016200039d9291906200106b565b6020604051808303816000875af1158015620003bd573d6000803e3d6000fd5b505050506040513d601f19601f82011682018060405250810190620003e39190620010d5565b50600060405180608001604052808573ffffffffffffffffffffffffffffffffffffffff1673ffffffffffffffffffffffffffffffffffffffff16815260200161101073ffffffffffffffffffffffffffffffffffffffff1673ffffffffffffffffffffffffffffffffffffffff1681526020018473ffffffffffffffffffffffffffffffffffffffff1673ffffffffffffffffffffffffffffffffffffffff1681526020018373ffffffffffffffffffffffffffffffffffffffff1673ffffffffffffffffffffffffffffffffffffffff1681525090507f6eb7e4fab233bb11d266858c1fb317b89443f11a1c67da01f83fb5395543666681604051620004ec9190620011fd565b60405180910390a150505050505050505050505050565b611adb806200121b83390190565b61155b8062002cf683390190565b611c2e806200425183390190565b600073ffffffffffffffffffffffffffffffffffffffff82169050919050565b6000819050919050565b600062000578620005726200056c846200052d565b6200054d565b6200052d565b9050919050565b60006200058c8262000557565b9050919050565b6000620005a0826200057f565b9050919050565b620005b28162000593565b82525050565b6000602082019050620005cf6000830184620005a7565b92915050565b6000604051905090565b600080fd5b600080fd5b6000819050919050565b620005fe81620005e9565b81146200060a57600080fd5b50565b6000813590506200061e81620005f3565b92915050565b600080fd5b600080fd5b6000601f19601f8301169050919050565b7f4e487b7100000000000000000000000000000000000000000000000000000000600052604160045260246000fd5b62000679826200062e565b810181811067ffffffffffffffff821117156200069b576200069a6200063f565b5b80604052505050565b6000620006b0620005d5565b9050620006be82826200066e565b919050565b600067ffffffffffffffff821115620006e157620006e06200063f565b5b620006ec826200062e565b9050602081019050919050565b82818337600083830152505050565b60006200071f6200071984620006c3565b620006a4565b9050828152602081018484840111156200073e576200073d62000629565b5b6200074b848285620006f9565b509392505050565b600082601f8301126200076b576200076a62000624565b5b81356200077d84826020860162000708565b91505092915050565b600067ffffffffffffffff821115620007a457620007a36200063f565b5b602082029050602081019050919050565b600080fd5b6000620007c7826200052d565b9050919050565b620007d981620007ba565b8114620007e557600080fd5b50565b600081359050620007f981620007ce565b92915050565b600062000816620008108462000786565b620006a4565b905080838252602082019050602084028301858111156200083c576200083b620007b5565b5b835b81811015620008695780620008548882620007e8565b8452602084019350506020810190506200083e565b5050509392505050565b600082601f8301126200088b576200088a62000624565b5b81356200089d848260208601620007ff565b91505092915050565b600067ffffffffffffffff821115620008c457620008c36200063f565b5b602082029050602081019050919050565b6000620008ec620008e684620008a6565b620006a4565b90508083825260208201905060208402830185811115620009125762000911620007b5565b5b835b818110156200093f57806200092a88826200060d565b84526020840193505060208101905062000914565b5050509392505050565b600082601f83011262000961576200096062000624565b5b813562000973848260208601620008d5565b91505092915050565b600080600080600080600060e0888a0312156200099e576200099d620005df565b5b6000620009ae8a828b016200060d565b975050602088013567ffffffffffffffff811115620009d257620009d1620005e4565b5b620009e08a828b0162000753565b965050604088013567ffffffffffffffff81111562000a045762000a03620005e4565b5b62000a128a828b0162000753565b955050606088013567ffffffffffffffff81111562000a365762000a35620005e4565b5b62000a448a828b0162000873565b945050608088013567ffffffffffffffff81111562000a685762000a67620005e4565b5b62000a768a828b0162000949565b93505060a062000a898a828b016200060d565b92505060c062000a9c8a828b016200060d565b91505092959891949750929550565b600082825260208201905092915050565b7f526563697069656e747320616e6420616d6f756e7473206c656e677468206d6960008201527f736d617463680000000000000000000000000000000000000000000000000000602082015250565b600062000b1a60268362000aab565b915062000b278262000abc565b604082019050919050565b6000602082019050818103600083015262000b4d8162000b0b565b9050919050565b7f4e487b7100000000000000000000000000000000000000000000000000000000600052603260045260246000fd5b7f4e487b7100000000000000000000000000000000000000000000000000000000600052601160045260246000fd5b600062000bbf82620005e9565b915062000bcc83620005e9565b925082820190508082111562000be75762000be662000b83565b5b92915050565b600062000bfa82620005e9565b91507fffffffffffffffffffffffffffffffffffffffffffffffffffffffffffffffff820362000c2f5762000c2e62000b83565b5b600182019050919050565b7f43616e6e6f742064697374726962757465206d6f726520746f6b656e7320746860008201527f616e20696e697469616c20737570706c79000000000000000000000000000000602082015250565b600062000c9860318362000aab565b915062000ca58262000c3a565b604082019050919050565b6000602082019050818103600083015262000ccb8162000c89565b9050919050565b600062000cdf82620005e9565b915062000cec83620005e9565b925082820262000cfc81620005e9565b9150828204841483151762000d165762000d1562000b83565b5b5092915050565b62000d2881620005e9565b82525050565b600081519050919050565b60005b8381101562000d5957808201518184015260208101905062000d3c565b60008484015250505050565b600062000d728262000d2e565b62000d7e818562000aab565b935062000d9081856020860162000d39565b62000d9b816200062e565b840191505092915050565b600060608201905062000dbd600083018662000d1d565b818103602083015262000dd1818562000d65565b9050818103604083015262000de7818462000d65565b9050949350505050565b600062000dfe826200057f565b9050919050565b62000e108162000df1565b82525050565b600060408201905062000e2d600083018562000e05565b62000e3c6020830184620005a7565b9392505050565b600081519050919050565b600082825260208201905092915050565b6000819050602082019050919050565b62000e7a81620007ba565b82525050565b600062000e8e838362000e6f565b60208301905092915050565b6000602082019050919050565b600062000eb48262000e43565b62000ec0818562000e4e565b935062000ecd8362000e5f565b8060005b8381101562000f0457815162000ee8888262000e80565b975062000ef58362000e9a565b92505060018101905062000ed1565b5085935050505092915050565b600081519050919050565b600082825260208201905092915050565b6000819050602082019050919050565b62000f4881620005e9565b82525050565b600062000f5c838362000f3d565b60208301905092915050565b6000602082019050919050565b600062000f828262000f11565b62000f8e818562000f1c565b935062000f9b8362000f2d565b8060005b8381101562000fd257815162000fb6888262000f4e565b975062000fc38362000f68565b92505060018101905062000f9f565b5085935050505092915050565b62000fea81620007ba565b82525050565b600060c08201905081810360008301526200100c818962000ea7565b9050818103602083015262001022818862000f75565b905062001033604083018762000d1d565b62001042606083018662000d1d565b62001051608083018562000fdf565b6200106060a083018462000fdf565b979650505050505050565b600060408201905062001082600083018562000fdf565b62001091602083018462000d1d565b9392505050565b60008115159050919050565b620010af8162001098565b8114620010bb57600080fd5b50565b600081519050620010cf81620010a4565b92915050565b600060208284031215620010ee57620010ed620005df565b5b6000620010fe84828501620010be565b91505092915050565b60006020820190506200111e600083018462000fdf565b92915050565b6000815190506200113581620005f3565b92915050565b600060208284031215620011545762001153620005df565b5b6000620011648482850162001124565b91505092915050565b600060049050919050565b600081905092915050565b6000819050919050565b6000602082019050919050565b620011a5816200116d565b620011b1818462001178565b9250620011be8262001183565b8060005b83811015620011f5578151620011d9878262000e80565b9650620011e6836200118d565b925050600181019050620011c2565b505050505050565b60006080820190506200121460008301846200119a565b9291505056fe60806040523480156200001157600080fd5b5060405162001adb38038062001adb8339818101604052810190620000379190620003bf565b818181600390816200004a91906200069a565b5080600490816200005c91906200069a565b5050506200007133846200007a60201b60201c565b5050506200089c565b600073ffffffffffffffffffffffffffffffffffffffff168273ffffffffffffffffffffffffffffffffffffffff1603620000ec576040517f08c379a0000000000000000000000000000000000000000000000000000000008152600401620000e390620007e2565b60405180910390fd5b6200010060008383620001e760201b60201c565b806002600082825462000114919062000833565b92505081905550806000808473ffffffffffffffffffffffffffffffffffffffff1673ffffffffffffffffffffffffffffffffffffffff168152602001908152602001600020600082825401925050819055508173ffffffffffffffffffffffffffffffffffffffff16600073ffffffffffffffffffffffffffffffffffffffff167fddf252ad1be2c89b69c2b068fc378daa952ba7f163c4a11628f55a4df523b3ef83604051620001c791906200087f565b60405180910390a3620001e360008383620001ec60201b60201c565b5050565b505050565b505050565b6000604051905090565b600080fd5b600080fd5b6000819050919050565b6200021a8162000205565b81146200022657600080fd5b50565b6000815190506200023a816200020f565b92915050565b600080fd5b600080fd5b6000601f19601f8301169050919050565b7f4e487b7100000000000000000000000000000000000000000000000000000000600052604160045260246000fd5b62000295826200024a565b810181811067ffffffffffffffff82111715620002b757620002b66200025b565b5b80604052505050565b6000620002cc620001f1565b9050620002da82826200028a565b919050565b600067ffffffffffffffff821115620002fd57620002fc6200025b565b5b62000308826200024a565b9050602081019050919050565b60005b838110156200033557808201518184015260208101905062000318565b60008484015250505050565b6000620003586200035284620002df565b620002c0565b90508281526020810184848401111562000377576200037662000245565b5b6200038484828562000315565b509392505050565b600082601f830112620003a457620003a362000240565b5b8151620003b684826020860162000341565b91505092915050565b600080600060608486031215620003db57620003da620001fb565b5b6000620003eb8682870162000229565b935050602084015167ffffffffffffffff8111156200040f576200040e62000200565b5b6200041d868287016200038c565b925050604084015167ffffffffffffffff81111562000441576200044062000200565b5b6200044f868287016200038c565b9150509250925092565b600081519050919050565b7f4e487b7100000000000000000000000000000000000000000000000000000000600052602260045260246000fd5b60006002820490506001821680620004ac57607f821691505b602082108103620004c257620004c162000464565b5b50919050565b60008190508160005260206000209050919050565b60006020601f8301049050919050565b600082821b905092915050565b6000600883026200052c7fffffffffffffffffffffffffffffffffffffffffffffffffffffffffffffffff82620004ed565b620005388683620004ed565b95508019841693508086168417925050509392505050565b6000819050919050565b60006200057b620005756200056f8462000205565b62000550565b62000205565b9050919050565b6000819050919050565b62000597836200055a565b620005af620005a68262000582565b848454620004fa565b825550505050565b600090565b620005c6620005b7565b620005d38184846200058c565b505050565b5b81811015620005fb57620005ef600082620005bc565b600181019050620005d9565b5050565b601f8211156200064a576200061481620004c8565b6200061f84620004dd565b810160208510156200062f578190505b620006476200063e85620004dd565b830182620005d8565b50505b505050565b600082821c905092915050565b60006200066f600019846008026200064f565b1980831691505092915050565b60006200068a83836200065c565b9150826002028217905092915050565b620006a58262000459565b67ffffffffffffffff811115620006c157620006c06200025b565b5b620006cd825462000493565b620006da828285620005ff565b600060209050601f831160018114620007125760008415620006fd578287015190505b6200070985826200067c565b86555062000779565b601f1984166200072286620004c8565b60005b828110156200074c5784890151825560018201915060208501945060208101905062000725565b868310156200076c578489015162000768601f8916826200065c565b8355505b6001600288020188555050505b505050505050565b600082825260208201905092915050565b7f45524332303a206d696e7420746f20746865207a65726f206164647265737300600082015250565b6000620007ca601f8362000781565b9150620007d78262000792565b602082019050919050565b60006020820190508181036000830152620007fd81620007bb565b9050919050565b7f4e487b7100000000000000000000000000000000000000000000000000000000600052601160045260246000fd5b6000620008408262000205565b91506200084d8362000205565b925082820190508082111562000868576200086762000804565b5b92915050565b620008798162000205565b82525050565b60006020820190506200089660008301846200086e565b92915050565b61122f80620008ac6000396000f3fe608060405234801561001057600080fd5b50600436106100a95760003560e01c80633950935111610071578063395093511461016857806370a082311461019857806395d89b41146101c8578063a457c2d7146101e6578063a9059cbb14610216578063dd62ed3e14610246576100a9565b806306fdde03146100ae578063095ea7b3146100cc57806318160ddd146100fc57806323b872dd1461011a578063313ce5671461014a575b600080fd5b6100b6610276565b6040516100c39190610b0c565b60405180910390f35b6100e660048036038101906100e19190610bc7565b610308565b6040516100f39190610c22565b60405180910390f35b61010461032b565b6040516101119190610c4c565b60405180910390f35b610134600480360381019061012f9190610c67565b610335565b6040516101419190610c22565b60405180910390f35b610152610364565b60405161015f9190610cd6565b60405180910390f35b610182600480360381019061017d9190610bc7565b61036d565b60405161018f9190610c22565b60405180910390f35b6101b260048036038101906101ad9190610cf1565b6103a4565b6040516101bf9190610c4c565b60405180910390f35b6101d06103ec565b6040516101dd9190610b0c565b60405180910390f35b61020060048036038101906101fb9190610bc7565b61047e565b60405161020d9190610c22565b60405180910390f35b610230600480360381019061022b9190610bc7565b6104f5565b60405161023d9190610c22565b60405180910390f35b610260600480360381019061025b9190610d1e565b610518565b60405161026d9190610c4c565b60405180910390f35b60606003805461028590610d8d565b80601f01602080910402602001604051908101604052809291908181526020018280546102b190610d8d565b80156102fe5780601f106102d3576101008083540402835291602001916102fe565b820191906000526020600020905b8154815290600101906020018083116102e157829003601f168201915b5050505050905090565b60008061031361059f565b90506103208185856105a7565b600191505092915050565b6000600254905090565b60008061034061059f565b905061034d858285610770565b6103588585856107fc565b60019150509392505050565b60006012905090565b60008061037861059f565b905061039981858561038a8589610518565b6103949190610ded565b6105a7565b600191505092915050565b60008060008373ffffffffffffffffffffffffffffffffffffffff1673ffffffffffffffffffffffffffffffffffffffff168152602001908152602001600020549050919050565b6060600480546103fb90610d8d565b80601f016020809104026020016040519081016040528092919081815260200182805461042790610d8d565b80156104745780601f1061044957610100808354040283529160200191610474565b820191906000526020600020905b81548152906001019060200180831161045757829003601f168201915b5050505050905090565b60008061048961059f565b905060006104978286610518565b9050838110156104dc576040517f08c379a00000000000000000000000000000000000000000000000000000000081526004016104d390610e93565b60405180910390fd5b6104e982868684036105a7565b60019250505092915050565b60008061050061059f565b905061050d8185856107fc565b600191505092915050565b6000600160008473ffffffffffffffffffffffffffffffffffffffff1673ffffffffffffffffffffffffffffffffffffffff16815260200190815260200160002060008373ffffffffffffffffffffffffffffffffffffffff1673ffffffffffffffffffffffffffffffffffffffff16815260200190815260200160002054905092915050565b600033905090565b600073ffffffffffffffffffffffffffffffffffffffff168373ffffffffffffffffffffffffffffffffffffffff1603610616576040517f08c379a000000000000000000000000000000000000000000000000000000000815260040161060d90610f25565b60405180910390fd5b600073ffffffffffffffffffffffffffffffffffffffff168273ffffffffffffffffffffffffffffffffffffffff1603610685576040517f08c379a000000000000000000000000000000000000000000000000000000000815260040161067c90610fb7565b60405180910390fd5b80600160008573ffffffffffffffffffffffffffffffffffffffff1673ffffffffffffffffffffffffffffffffffffffff16815260200190815260200160002060008473ffffffffffffffffffffffffffffffffffffffff1673ffffffffffffffffffffffffffffffffffffffff168152602001908152602001600020819055508173ffffffffffffffffffffffffffffffffffffffff168373ffffffffffffffffffffffffffffffffffffffff167f8c5be1e5ebec7d5bd14f71427d1e84f3dd0314c0f7b2291e5b200ac8c7c3b925836040516107639190610c4c565b60405180910390a3505050565b600061077c8484610518565b90507fffffffffffffffffffffffffffffffffffffffffffffffffffffffffffffffff81146107f657818110156107e8576040517f08c379a00000000000000000000000000000000000000000000000000000000081526004016107df90611023565b60405180910390fd5b6107f584848484036105a7565b5b50505050565b600073ffffffffffffffffffffffffffffffffffffffff168373ffffffffffffffffffffffffffffffffffffffff160361086b576040517f08c379a0000000000000000000000000000000000000000000000000000000008152600401610862906110b5565b60405180910390fd5b600073ffffffffffffffffffffffffffffffffffffffff168273ffffffffffffffffffffffffffffffffffffffff16036108da576040517f08c379a00000000000000000000000000000000000000000000000000000000081526004016108d190611147565b60405180910390fd5b6108e5838383610a72565b60008060008573ffffffffffffffffffffffffffffffffffffffff1673ffffffffffffffffffffffffffffffffffffffff1681526020019081526020016000205490508181101561096b576040517f08c379a0000000000000000000000000000000000000000000000000000000008152600401610962906111d9565b60405180910390fd5b8181036000808673ffffffffffffffffffffffffffffffffffffffff1673ffffffffffffffffffffffffffffffffffffffff16815260200190815260200160002081905550816000808573ffffffffffffffffffffffffffffffffffffffff1673ffffffffffffffffffffffffffffffffffffffff168152602001908152602001600020600082825401925050819055508273ffffffffffffffffffffffffffffffffffffffff168473ffffffffffffffffffffffffffffffffffffffff167fddf252ad1be2c89b69c2b068fc378daa952ba7f163c4a11628f55a4df523b3ef84604051610a599190610c4c565b60405180910390a3610a6c848484610a77565b50505050565b505050565b505050565b600081519050919050565b600082825260208201905092915050565b60005b83811015610ab6578082015181840152602081019050610a9b565b60008484015250505050565b6000601f19601f8301169050919050565b6000610ade82610a7c565b610ae88185610a87565b9350610af8818560208601610a98565b610b0181610ac2565b840191505092915050565b60006020820190508181036000830152610b268184610ad3565b905092915050565b600080fd5b600073ffffffffffffffffffffffffffffffffffffffff82169050919050565b6000610b5e82610b33565b9050919050565b610b6e81610b53565b8114610b7957600080fd5b50565b600081359050610b8b81610b65565b92915050565b6000819050919050565b610ba481610b91565b8114610baf57600080fd5b50565b600081359050610bc181610b9b565b92915050565b60008060408385031215610bde57610bdd610b2e565b5b6000610bec85828601610b7c565b9250506020610bfd85828601610bb2565b9150509250929050565b60008115159050919050565b610c1c81610c07565b82525050565b6000602082019050610c376000830184610c13565b92915050565b610c4681610b91565b82525050565b6000602082019050610c616000830184610c3d565b92915050565b600080600060608486031215610c8057610c7f610b2e565b5b6000610c8e86828701610b7c565b9350506020610c9f86828701610b7c565b9250506040610cb086828701610bb2565b9150509250925092565b600060ff82169050919050565b610cd081610cba565b82525050565b6000602082019050610ceb6000830184610cc7565b92915050565b600060208284031215610d0757610d06610b2e565b5b6000610d1584828501610b7c565b91505092915050565b60008060408385031215610d3557610d34610b2e565b5b6000610d4385828601610b7c565b9250506020610d5485828601610b7c565b9150509250929050565b7f4e487b7100000000000000000000000000000000000000000000000000000000600052602260045260246000fd5b60006002820490506001821680610da557607f821691505b602082108103610db857610db7610d5e565b5b50919050565b7f4e487b7100000000000000000000000000000000000000000000000000000000600052601160045260246000fd5b6000610df882610b91565b9150610e0383610b91565b9250828201905080821115610e1b57610e1a610dbe565b5b92915050565b7f45524332303a2064656372656173656420616c6c6f77616e63652062656c6f7760008201527f207a65726f000000000000000000000000000000000000000000000000000000602082015250565b6000610e7d602583610a87565b9150610e8882610e21565b604082019050919050565b60006020820190508181036000830152610eac81610e70565b9050919050565b7f45524332303a20617070726f76652066726f6d20746865207a65726f2061646460008201527f7265737300000000000000000000000000000000000000000000000000000000602082015250565b6000610f0f602483610a87565b9150610f1a82610eb3565b604082019050919050565b60006020820190508181036000830152610f3e81610f02565b9050919050565b7f45524332303a20617070726f766520746f20746865207a65726f20616464726560008201527f7373000000000000000000000000000000000000000000000000000000000000602082015250565b6000610fa1602283610a87565b9150610fac82610f45565b604082019050919050565b60006020820190508181036000830152610fd081610f94565b9050919050565b7f45524332303a20696e73756666696369656e7420616c6c6f77616e6365000000600082015250565b600061100d601d83610a87565b915061101882610fd7565b602082019050919050565b6000602082019050818103600083015261103c81611000565b9050919050565b7f45524332303a207472616e736665722066726f6d20746865207a65726f20616460008201527f6472657373000000000000000000000000000000000000000000000000000000602082015250565b600061109f602583610a87565b91506110aa82611043565b604082019050919050565b600060208201905081810360008301526110ce81611092565b9050919050565b7f45524332303a207472616e7366657220746f20746865207a65726f206164647260008201527f6573730000000000000000000000000000000000000000000000000000000000602082015250565b6000611131602383610a87565b915061113c826110d5565b604082019050919050565b6000602082019050818103600083015261116081611124565b9050919050565b7f45524332303a207472616e7366657220616d6f756e742065786365656473206260008201527f616c616e63650000000000000000000000000000000000000000000000000000602082015250565b60006111c3602683610a87565b91506111ce82611167565b604082019050919050565b600060208201905081810360008301526111f2816111b6565b905091905056fea26469706673582212204e8ace5ed317d250d401e8e45f0f71f69dec1389d73015e1d357db08e12493a064736f6c6343000812003360806040523480156200001157600080fd5b506040516200155b3803806200155b833981810160405281019062000037919062000146565b816000806101000a81548173ffffffffffffffffffffffffffffffffffffffff021916908373ffffffffffffffffffffffffffffffffffffffff16021790555080600160006101000a81548173ffffffffffffffffffffffffffffffffffffffff021916908373ffffffffffffffffffffffffffffffffffffffff160217905550600160028190555050506200018d565b600080fd5b600073ffffffffffffffffffffffffffffffffffffffff82169050919050565b6000620000fa82620000cd565b9050919050565b60006200010e82620000ed565b9050919050565b620001208162000101565b81146200012c57600080fd5b50565b600081519050620001408162000115565b92915050565b6000806040838503121562000160576200015f620000c8565b5b600062000170858286016200012f565b925050602062000183858286016200012f565b9150509250929050565b6113be806200019d6000396000f3fe608060405234801561001057600080fd5b506004361061007d5760003560e01c806392891ea61161005b57806392891ea6146100da578063a85c38ef146100f6578063bd2d447d14610129578063c55dae63146101455761007d565b8063217a4b70146100825780632a58b330146100a0578063514fcac7146100be575b600080fd5b61008a610163565b6040516100979190610cf9565b60405180910390f35b6100a8610189565b6040516100b59190610d2d565b60405180910390f35b6100d860048036038101906100d39190610d79565b61018f565b005b6100f460048036038101906100ef9190610da6565b6102ca565b005b610110600480360381019061010b9190610d79565b610a35565b6040516101209493929190610e22565b60405180910390f35b610143600480360381019061013e9190610e93565b610a92565b005b61014d610c56565b60405161015a9190610cf9565b60405180910390f35b600160009054906101000a900473ffffffffffffffffffffffffffffffffffffffff1681565b60025481565b60006003600083815260200190815260200160002090503373ffffffffffffffffffffffffffffffffffffffff168160000160009054906101000a900473ffffffffffffffffffffffffffffffffffffffff1673ffffffffffffffffffffffffffffffffffffffff1614610238576040517f08c379a000000000000000000000000000000000000000000000000000000000815260040161022f90610f43565b60405180910390fd5b60036000838152602001908152602001600020600080820160006101000a81549073ffffffffffffffffffffffffffffffffffffffff0219169055600182016000905560028201600090556003820160006101000a81549060ff02191690555050817fc41f4ceb2938876c35e61b705e9d2f18a02c4a26ce5e049a6308a943d46851b360405160405180910390a25050565b600060036000848152602001908152602001600020905060006003600084815260200190815260200160002090508060030160009054906101000a900460ff1615158260030160009054906101000a900460ff16151503610360576040517f08c379a000000000000000000000000000000000000000000000000000000000815260040161035790610faf565b60405180910390fd5b8160030160009054906101000a900460ff16801561038657508060020154826002015410155b806103b457508160030160009054906101000a900460ff161580156103b357508060020154826002015411155b5b6103f3576040517f08c379a00000000000000000000000000000000000000000000000000000000081526004016103ea9061101b565b60405180910390fd5b6000816001015483600101541061040e578160010154610414565b82600101545b90506000819050600084600201548361042d919061106a565b90508460030160009054906101000a900460ff161561069b5760008054906101000a900473ffffffffffffffffffffffffffffffffffffffff1673ffffffffffffffffffffffffffffffffffffffff166323b872dd8660000160009054906101000a900473ffffffffffffffffffffffffffffffffffffffff168660000160009054906101000a900473ffffffffffffffffffffffffffffffffffffffff16856040518463ffffffff1660e01b81526004016104eb939291906110ac565b6020604051808303816000875af115801561050a573d6000803e3d6000fd5b505050506040513d601f19601f8201168201806040525081019061052e91906110f8565b61056d576040517f08c379a000000000000000000000000000000000000000000000000000000000815260040161056490611171565b60405180910390fd5b600160009054906101000a900473ffffffffffffffffffffffffffffffffffffffff1673ffffffffffffffffffffffffffffffffffffffff166323b872dd8560000160009054906101000a900473ffffffffffffffffffffffffffffffffffffffff168760000160009054906101000a900473ffffffffffffffffffffffffffffffffffffffff16846040518463ffffffff1660e01b8152600401610614939291906110ac565b6020604051808303816000875af1158015610633573d6000803e3d6000fd5b505050506040513d601f19601f8201168201806040525081019061065791906110f8565b610696576040517f08c379a000000000000000000000000000000000000000000000000000000000815260040161068d906111dd565b60405180910390fd5b6108ec565b60008054906101000a900473ffffffffffffffffffffffffffffffffffffffff1673ffffffffffffffffffffffffffffffffffffffff166323b872dd8560000160009054906101000a900473ffffffffffffffffffffffffffffffffffffffff168760000160009054906101000a900473ffffffffffffffffffffffffffffffffffffffff16856040518463ffffffff1660e01b8152600401610740939291906110ac565b6020604051808303816000875af115801561075f573d6000803e3d6000fd5b505050506040513d601f19601f8201168201806040525081019061078391906110f8565b6107c2576040517f08c379a00000000000000000000000000000000000000000000000000000000081526004016107b990611171565b60405180910390fd5b600160009054906101000a900473ffffffffffffffffffffffffffffffffffffffff1673ffffffffffffffffffffffffffffffffffffffff166323b872dd8660000160009054906101000a900473ffffffffffffffffffffffffffffffffffffffff168660000160009054906101000a900473ffffffffffffffffffffffffffffffffffffffff16846040518463ffffffff1660e01b8152600401610869939291906110ac565b6020604051808303816000875af1158015610888573d6000803e3d6000fd5b505050506040513d601f19601f820116820180604052508101906108ac91906110f8565b6108eb576040517f08c379a00000000000000000000000000000000000000000000000000000000081526004016108e2906111dd565b60405180910390fd5b5b8285600101600082825461090091906111fd565b925050819055508284600101600082825461091b91906111fd565b9250508190555060008560010154036109905760036000888152602001908152602001600020600080820160006101000a81549073ffffffffffffffffffffffffffffffffffffffff0219169055600182016000905560028201600090556003820160006101000a81549060ff021916905550505b60008460010154036109fe5760036000878152602001908152602001600020600080820160006101000a81549073ffffffffffffffffffffffffffffffffffffffff0219169055600182016000905560028201600090556003820160006101000a81549060ff021916905550505b85877f9947370f1e808dd40de986fca744d8715d4d7aa575359f77a7bdeeb887f590ea60405160405180910390a350505050505050565b60036020528060005260406000206000915090508060000160009054906101000a900473ffffffffffffffffffffffffffffffffffffffff16908060010154908060020154908060030160009054906101000a900460ff16905084565b60008311610ad5576040517f08c379a0000000000000000000000000000000000000000000000000000000008152600401610acc9061127d565b60405180910390fd5b60008211610b18576040517f08c379a0000000000000000000000000000000000000000000000000000000008152600401610b0f906112e9565b60405180910390fd5b600060026000815480929190610b2d90611309565b91905055905060405180608001604052803373ffffffffffffffffffffffffffffffffffffffff1681526020018581526020018481526020018315158152506003600083815260200190815260200160002060008201518160000160006101000a81548173ffffffffffffffffffffffffffffffffffffffff021916908373ffffffffffffffffffffffffffffffffffffffff160217905550602082015181600101556040820151816002015560608201518160030160006101000a81548160ff0219169083151502179055509050503373ffffffffffffffffffffffffffffffffffffffff16817f1ad1a5ae4ffda7ac4728a3f999d312ee8c3bf93f8f9bec6ea55609ec2980c0d7868686604051610c4893929190611351565b60405180910390a350505050565b60008054906101000a900473ffffffffffffffffffffffffffffffffffffffff1681565b600073ffffffffffffffffffffffffffffffffffffffff82169050919050565b6000819050919050565b6000610cbf610cba610cb584610c7a565b610c9a565b610c7a565b9050919050565b6000610cd182610ca4565b9050919050565b6000610ce382610cc6565b9050919050565b610cf381610cd8565b82525050565b6000602082019050610d0e6000830184610cea565b92915050565b6000819050919050565b610d2781610d14565b82525050565b6000602082019050610d426000830184610d1e565b92915050565b600080fd5b610d5681610d14565b8114610d6157600080fd5b50565b600081359050610d7381610d4d565b92915050565b600060208284031215610d8f57610d8e610d48565b5b6000610d9d84828501610d64565b91505092915050565b60008060408385031215610dbd57610dbc610d48565b5b6000610dcb85828601610d64565b9250506020610ddc85828601610d64565b9150509250929050565b6000610df182610c7a565b9050919050565b610e0181610de6565b82525050565b60008115159050919050565b610e1c81610e07565b82525050565b6000608082019050610e376000830187610df8565b610e446020830186610d1e565b610e516040830185610d1e565b610e5e6060830184610e13565b95945050505050565b610e7081610e07565b8114610e7b57600080fd5b50565b600081359050610e8d81610e67565b92915050565b600080600060608486031215610eac57610eab610d48565b5b6000610eba86828701610d64565b9350506020610ecb86828701610d64565b9250506040610edc86828701610e7e565b9150509250925092565b600082825260208201905092915050565b7f4e6f7420746865206f72646572206f776e657200000000000000000000000000600082015250565b6000610f2d601383610ee6565b9150610f3882610ef7565b602082019050919050565b60006020820190508181036000830152610f5c81610f20565b9050919050565b7f4f7264657273206d757374206265206f70706f73697465207479706573000000600082015250565b6000610f99601d83610ee6565b9150610fa482610f63565b602082019050919050565b60006020820190508181036000830152610fc881610f8c565b9050919050565b7f556e6d6174636865642070726963657300000000000000000000000000000000600082015250565b6000611005601083610ee6565b915061101082610fcf565b602082019050919050565b6000602082019050818103600083015261103481610ff8565b9050919050565b7f4e487b7100000000000000000000000000000000000000000000000000000000600052601160045260246000fd5b600061107582610d14565b915061108083610d14565b925082820261108e81610d14565b915082820484148315176110a5576110a461103b565b5b5092915050565b60006060820190506110c16000830186610df8565b6110ce6020830185610df8565b6110db6040830184610d1e565b949350505050565b6000815190506110f281610e67565b92915050565b60006020828403121561110e5761110d610d48565b5b600061111c848285016110e3565b91505092915050565b7f4261736520746f6b656e207472616e73666572206661696c6564000000000000600082015250565b600061115b601a83610ee6565b915061116682611125565b602082019050919050565b6000602082019050818103600083015261118a8161114e565b9050919050565b7f51756f746520746f6b656e207472616e73666572206661696c65640000000000600082015250565b60006111c7601b83610ee6565b91506111d282611191565b602082019050919050565b600060208201905081810360008301526111f6816111ba565b9050919050565b600061120882610d14565b915061121383610d14565b925082820390508181111561122b5761122a61103b565b5b92915050565b7f416d6f756e74206d7573742062652067726561746572207468616e2030000000600082015250565b6000611267601d83610ee6565b915061127282611231565b602082019050919050565b600060208201905081810360008301526112968161125a565b9050919050565b7f5072696365206d7573742062652067726561746572207468616e203000000000600082015250565b60006112d3601c83610ee6565b91506112de8261129d565b602082019050919050565b60006020820190508181036000830152611302816112c6565b9050919050565b600061131482610d14565b91507fffffffffffffffffffffffffffffffffffffffffffffffffffffffffffffffff82036113465761134561103b565b5b600182019050919050565b60006060820190506113666000830186610d1e565b6113736020830185610d1e565b6113806040830184610e13565b94935050505056fea26469706673582212205981604de8cd5de58255d1a4c2604d1b117b8590e790d3e6abec0b080832ca2664736f6c6343000812003360806040523480156200001157600080fd5b5060405162001c2e38038062001c2e83398181016040528101906200003791906200075b565b620000576200004b6200024060201b60201c565b6200024860201b60201c565b84518651146200009e576040517f08c379a00000000000000000000000000000000000000000000000000000000081526004016200009590620008bc565b60405180910390fd5b60005b8651811015620001cc57604051806040016040528060008152602001600081525060016000898481518110620000dc57620000db620008de565b5b602002602001015173ffffffffffffffffffffffffffffffffffffffff1673ffffffffffffffffffffffffffffffffffffffff16815260200190815260200160002060008201518160000155602082015181600101559050508581815181106200014b576200014a620008de565b5b6020026020010151600160008984815181106200016d576200016c620008de565b5b602002602001015173ffffffffffffffffffffffffffffffffffffffff1673ffffffffffffffffffffffffffffffffffffffff168152602001908152602001600020600001819055508080620001c3906200093c565b915050620000a1565b5042600281905550836003819055508260048190555081600560006101000a81548173ffffffffffffffffffffffffffffffffffffffff021916908373ffffffffffffffffffffffffffffffffffffffff16021790555062000234816200030c60201b60201c565b50505050505062000a93565b600033905090565b60008060009054906101000a900473ffffffffffffffffffffffffffffffffffffffff169050816000806101000a81548173ffffffffffffffffffffffffffffffffffffffff021916908373ffffffffffffffffffffffffffffffffffffffff1602179055508173ffffffffffffffffffffffffffffffffffffffff168173ffffffffffffffffffffffffffffffffffffffff167f8be0079c531659141344cd1fd0a4f28419497f9722a3daafe3b4186f6b6457e060405160405180910390a35050565b6200031c620003a260201b60201c565b600073ffffffffffffffffffffffffffffffffffffffff168173ffffffffffffffffffffffffffffffffffffffff16036200038e576040517f08c379a00000000000000000000000000000000000000000000000000000000081526004016200038590620009ff565b60405180910390fd5b6200039f816200024860201b60201c565b50565b620003b26200024060201b60201c565b73ffffffffffffffffffffffffffffffffffffffff16620003d86200043360201b60201c565b73ffffffffffffffffffffffffffffffffffffffff161462000431576040517f08c379a0000000000000000000000000000000000000000000000000000000008152600401620004289062000a71565b60405180910390fd5b565b60008060009054906101000a900473ffffffffffffffffffffffffffffffffffffffff16905090565b6000604051905090565b600080fd5b600080fd5b600080fd5b6000601f19601f8301169050919050565b7f4e487b7100000000000000000000000000000000000000000000000000000000600052604160045260246000fd5b620004c08262000475565b810181811067ffffffffffffffff82111715620004e257620004e162000486565b5b80604052505050565b6000620004f76200045c565b9050620005058282620004b5565b919050565b600067ffffffffffffffff82111562000528576200052762000486565b5b602082029050602081019050919050565b600080fd5b600073ffffffffffffffffffffffffffffffffffffffff82169050919050565b60006200056b826200053e565b9050919050565b6200057d816200055e565b81146200058957600080fd5b50565b6000815190506200059d8162000572565b92915050565b6000620005ba620005b4846200050a565b620004eb565b90508083825260208201905060208402830185811115620005e057620005df62000539565b5b835b818110156200060d5780620005f888826200058c565b845260208401935050602081019050620005e2565b5050509392505050565b600082601f8301126200062f576200062e62000470565b5b815162000641848260208601620005a3565b91505092915050565b600067ffffffffffffffff82111562000668576200066762000486565b5b602082029050602081019050919050565b6000819050919050565b6200068e8162000679565b81146200069a57600080fd5b50565b600081519050620006ae8162000683565b92915050565b6000620006cb620006c5846200064a565b620004eb565b90508083825260208201905060208402830185811115620006f157620006f062000539565b5b835b818110156200071e57806200070988826200069d565b845260208401935050602081019050620006f3565b5050509392505050565b600082601f83011262000740576200073f62000470565b5b815162000752848260208601620006b4565b91505092915050565b60008060008060008060c087890312156200077b576200077a62000466565b5b600087015167ffffffffffffffff8111156200079c576200079b6200046b565b5b620007aa89828a0162000617565b965050602087015167ffffffffffffffff811115620007ce57620007cd6200046b565b5b620007dc89828a0162000728565b9550506040620007ef89828a016200069d565b94505060606200080289828a016200069d565b93505060806200081589828a016200058c565b92505060a06200082889828a016200058c565b9150509295509295509295565b600082825260208201905092915050565b7f526563697069656e747320616e6420616d6f756e7473206c656e677468206d6960008201527f736d617463680000000000000000000000000000000000000000000000000000602082015250565b6000620008a460268362000835565b9150620008b18262000846565b604082019050919050565b60006020820190508181036000830152620008d78162000895565b9050919050565b7f4e487b7100000000000000000000000000000000000000000000000000000000600052603260045260246000fd5b7f4e487b7100000000000000000000000000000000000000000000000000000000600052601160045260246000fd5b6000620009498262000679565b91507fffffffffffffffffffffffffffffffffffffffffffffffffffffffffffffffff82036200097e576200097d6200090d565b5b600182019050919050565b7f4f776e61626c653a206e6577206f776e657220697320746865207a65726f206160008201527f6464726573730000000000000000000000000000000000000000000000000000602082015250565b6000620009e760268362000835565b9150620009f48262000989565b604082019050919050565b6000602082019050818103600083015262000a1a81620009d8565b9050919050565b7f4f776e61626c653a2063616c6c6572206973206e6f7420746865206f776e6572600082015250565b600062000a5960208362000835565b915062000a668262000a21565b602082019050919050565b6000602082019050818103600083015262000a8c8162000a4a565b9050919050565b61118b8062000aa36000396000f3fe608060405234801561001057600080fd5b506004361061009e5760003560e01c806378e979251161006657806378e97925146101225780638da5cb5b14610140578063c6b435141461015e578063c7dab4361461017c578063f2fde38b1461019a5761009e565b80630f1a6444146100a357806325ef4100146100c15780634e71d92d146100f25780636efd99c4146100fc578063715018a614610118575b600080fd5b6100ab6101b6565b6040516100b89190610b77565b60405180910390f35b6100db60048036038101906100d69190610bf5565b6101bc565b6040516100e9929190610c22565b60405180910390f35b6100fa6101e0565b005b61011660048036038101906101119190610bf5565b610548565b005b610120610922565b005b61012a610936565b6040516101379190610b77565b60405180910390f35b61014861093c565b6040516101559190610c5a565b60405180910390f35b610166610965565b6040516101739190610cd4565b60405180910390f35b61018461098b565b6040516101919190610b77565b60405180910390f35b6101b460048036038101906101af9190610bf5565b610991565b005b60035481565b60016020528060005260406000206000915090508060000154908060010154905082565b6000600160003373ffffffffffffffffffffffffffffffffffffffff1673ffffffffffffffffffffffffffffffffffffffff168152602001908152602001600020905060004290506000600254826102389190610d1e565b905060008260035460025461024d9190610d52565b111561028e576040517f08c379a000000000000000000000000000000000000000000000000000000000815260040161028590610e09565b60405180910390fd5b60008460000154036102d5576040517f08c379a00000000000000000000000000000000000000000000000000000000081526004016102cc90610e9b565b60405180910390fd5b836000015484600101540361031f576040517f08c379a000000000000000000000000000000000000000000000000000000000815260040161031690610f07565b60405180910390fd5b826004546002546103309190610d52565b1161041c5760008460010154856000015461034b9190610d1e565b905084600001548560010181905550600560009054906101000a900473ffffffffffffffffffffffffffffffffffffffff1673ffffffffffffffffffffffffffffffffffffffff1663a9059cbb33670de0b6b3a7640000846103ad9190610f27565b6040518363ffffffff1660e01b81526004016103ca929190610f69565b6020604051808303816000875af11580156103e9573d6000803e3d6000fd5b505050506040513d601f19601f8201168201806040525081019061040d9190610fca565b61041657600080fd5b50610542565b600454670de0b6b3a7640000836104339190610f27565b61043d9190611026565b90506000670de0b6b3a764000082866000015461045a9190610f27565b6104649190611026565b905060008560010154826104789190610d1e565b9050818660010181905550600560009054906101000a900473ffffffffffffffffffffffffffffffffffffffff1673ffffffffffffffffffffffffffffffffffffffff1663a9059cbb33670de0b6b3a7640000846104d69190610f27565b6040518363ffffffff1660e01b81526004016104f3929190610f69565b6020604051808303816000875af1158015610512573d6000803e3d6000fd5b505050506040513d601f19601f820116820180604052508101906105369190610fca565b61053f57600080fd5b50505b50505050565b610550610a14565b600160008273ffffffffffffffffffffffffffffffffffffffff1673ffffffffffffffffffffffffffffffffffffffff16815260200190815260200160002060010154600160008373ffffffffffffffffffffffffffffffffffffffff1673ffffffffffffffffffffffffffffffffffffffff16815260200190815260200160002060000154036105e057600080fd5b6000600160008373ffffffffffffffffffffffffffffffffffffffff1673ffffffffffffffffffffffffffffffffffffffff168152602001908152602001600020905060004290506000600254826106389190610d1e565b905060008260035460025461064d9190610d52565b111561071f57600560009054906101000a900473ffffffffffffffffffffffffffffffffffffffff1673ffffffffffffffffffffffffffffffffffffffff1663a9059cbb61069961093c565b670de0b6b3a764000087600001546106b19190610f27565b6040518363ffffffff1660e01b81526004016106ce929190610f69565b6020604051808303816000875af11580156106ed573d6000803e3d6000fd5b505050506040513d601f19601f820116820180604052508101906107119190610fca565b61071a57600080fd5b61091b565b600454670de0b6b3a7640000836107369190610f27565b6107409190611026565b90506000670de0b6b3a764000082866000015461075d9190610f27565b6107679190611026565b9050600085600101548261077b9190610d1e565b9050818660010181905550600560009054906101000a900473ffffffffffffffffffffffffffffffffffffffff1673ffffffffffffffffffffffffffffffffffffffff1663a9059cbb88670de0b6b3a7640000846107d99190610f27565b6040518363ffffffff1660e01b81526004016107f6929190610f69565b6020604051808303816000875af1158015610815573d6000803e3d6000fd5b505050506040513d601f19601f820116820180604052508101906108399190610fca565b61084257600080fd5b600560009054906101000a900473ffffffffffffffffffffffffffffffffffffffff1673ffffffffffffffffffffffffffffffffffffffff1663a9059cbb61088861093c565b670de0b6b3a764000089600101548a600001546108a59190610d1e565b6108af9190610f27565b6040518363ffffffff1660e01b81526004016108cc929190610f69565b6020604051808303816000875af11580156108eb573d6000803e3d6000fd5b505050506040513d601f19601f8201168201806040525081019061090f9190610fca565b61091857600080fd5b50505b5050505050565b61092a610a14565b6109346000610a92565b565b60025481565b60008060009054906101000a900473ffffffffffffffffffffffffffffffffffffffff16905090565b600560009054906101000a900473ffffffffffffffffffffffffffffffffffffffff1681565b60045481565b610999610a14565b600073ffffffffffffffffffffffffffffffffffffffff168173ffffffffffffffffffffffffffffffffffffffff1603610a08576040517f08c379a00000000000000000000000000000000000000000000000000000000081526004016109ff906110c9565b60405180910390fd5b610a1181610a92565b50565b610a1c610b56565b73ffffffffffffffffffffffffffffffffffffffff16610a3a61093c565b73ffffffffffffffffffffffffffffffffffffffff1614610a90576040517f08c379a0000000000000000000000000000000000000000000000000000000008152600401610a8790611135565b60405180910390fd5b565b60008060009054906101000a900473ffffffffffffffffffffffffffffffffffffffff169050816000806101000a81548173ffffffffffffffffffffffffffffffffffffffff021916908373ffffffffffffffffffffffffffffffffffffffff1602179055508173ffffffffffffffffffffffffffffffffffffffff168173ffffffffffffffffffffffffffffffffffffffff167f8be0079c531659141344cd1fd0a4f28419497f9722a3daafe3b4186f6b6457e060405160405180910390a35050565b600033905090565b6000819050919050565b610b7181610b5e565b82525050565b6000602082019050610b8c6000830184610b68565b92915050565b600080fd5b600073ffffffffffffffffffffffffffffffffffffffff82169050919050565b6000610bc282610b97565b9050919050565b610bd281610bb7565b8114610bdd57600080fd5b50565b600081359050610bef81610bc9565b92915050565b600060208284031215610c0b57610c0a610b92565b5b6000610c1984828501610be0565b91505092915050565b6000604082019050610c376000830185610b68565b610c446020830184610b68565b9392505050565b610c5481610bb7565b82525050565b6000602082019050610c6f6000830184610c4b565b92915050565b6000819050919050565b6000610c9a610c95610c9084610b97565b610c75565b610b97565b9050919050565b6000610cac82610c7f565b9050919050565b6000610cbe82610ca1565b9050919050565b610cce81610cb3565b82525050565b6000602082019050610ce96000830184610cc5565b92915050565b7f4e487b7100000000000000000000000000000000000000000000000000000000600052601160045260246000fd5b6000610d2982610b5e565b9150610d3483610b5e565b9250828203905081811115610d4c57610d4b610cef565b5b92915050565b6000610d5d82610b5e565b9150610d6883610b5e565b9250828201905080821115610d8057610d7f610cef565b5b92915050565b600082825260208201905092915050565b7f56657374656420746f6b656e732063616e6e6f7420626520636c61696d65642060008201527f6265666f72652074686520636c69666620706572696f64000000000000000000602082015250565b6000610df3603783610d86565b9150610dfe82610d97565b604082019050919050565b60006020820190508181036000830152610e2281610de6565b9050919050565b7f41646472657373206e6f74206120726563697069656e74206f6620746f6b656e60008201527f7300000000000000000000000000000000000000000000000000000000000000602082015250565b6000610e85602183610d86565b9150610e9082610e29565b604082019050919050565b60006020820190508181036000830152610eb481610e78565b9050919050565b7f416c6c20746f6b656e7320636c61696d65642100000000000000000000000000600082015250565b6000610ef1601383610d86565b9150610efc82610ebb565b602082019050919050565b60006020820190508181036000830152610f2081610ee4565b9050919050565b6000610f3282610b5e565b9150610f3d83610b5e565b9250828202610f4b81610b5e565b91508282048414831517610f6257610f61610cef565b5b5092915050565b6000604082019050610f7e6000830185610c4b565b610f8b6020830184610b68565b9392505050565b60008115159050919050565b610fa781610f92565b8114610fb257600080fd5b50565b600081519050610fc481610f9e565b92915050565b600060208284031215610fe057610fdf610b92565b5b6000610fee84828501610fb5565b91505092915050565b7f4e487b7100000000000000000000000000000000000000000000000000000000600052601260045260246000fd5b600061103182610b5e565b915061103c83610b5e565b92508261104c5761104b610ff7565b5b828204905092915050565b7f4f776e61626c653a206e6577206f776e657220697320746865207a65726f206160008201527f6464726573730000000000000000000000000000000000000000000000000000602082015250565b60006110b3602683610d86565b91506110be82611057565b604082019050919050565b600060208201905081810360008301526110e2816110a6565b9050919050565b7f4f776e61626c653a2063616c6c6572206973206e6f7420746865206f776e6572600082015250565b600061111f602083610d86565b915061112a826110e9565b602082019050919050565b6000602082019050818103600083015261114e81611112565b905091905056fea2646970667358221220c285cb44fb77d0e7374a22cab09379f41c7696007396f83d7e196de36ec0e6e264736f6c63430008120033a2646970667358221220da4777ca5b7e438aa7422f8be0c5230b1d16326a423cb447570346fbc7364b9264736f6c63430008120033",
  "linkReferences": {},
  "deployedLinkReferences": {}
}